:020000040800F2
:10000000000F002091010008EF250008AF1E000836
:10001000ED250008B3060008112F000800000000BD
:100020000000000000000000000000004D29000852
:10003000B5060008000000004B290008A5290008AB
:10004000AB010008AB010008AB010008AB010008E0
:10005000AB010008AB010008AB010008AB010008D0
:10006000AB010008AB010008AB010008AB010008C0
:10007000AB010008AB010008AB010008AB010008B0
:10008000AB010008AB010008AB010008AB010008A0
:10009000AB010008AB010008AB010008AB01000890
:1000A000AB010008AB010008AB010008AB01000880
:1000B000AB010008092A0008AB010008AB010008E9
:1000C000AB010008AB010008AB010008AB01000860
:1000D000AB010008AB010008052F0008AB010008C8
:1000E000AB010008AB010008AB01000800F002F80A
:1000F00000F03FF80AA090E8000C82448344AAF183
:100100000107DA4501D100F034F8AFF2090EBAE880
:100110000F0013F0010F18BFFB1A43F0010318473B
:10012000D89B0000F89B0000103A24BF78C878C123
:10013000FAD8520724BF30C830C144BF04680C60ED
:10014000704700000023002400250026103A28BF35
:1001500078C1FBD8520728BF30C148BF0B60704739
:10016000642900F0A180002070471FB51FBD10B5A5
:1001700010BD00F069FA1146FFF7F7FF04F048FAE6
:1001800000F087FA03B4FFF7F2FF03BC00F08AFA2D
:100190000948804709480047FEE7FEE7FEE7FEE71B
:1001A000FEE7FEE7FEE7FEE7FEE7FEE70448054957
:1001B000054A064B70470000072A0008ED000008BA
:1001C00000090020000F0020000B0020000B002081
:1001D00010B54C1084EA530404D54042C1F100012B
:1001E00038BF491E1B4204D55242C3F1000338BF39
:1001F0005B1E00F027F914F0804F04D04042C1F19B
:10020000000138BF491E14F0004F04D05242C3F120
:10021000000338BF5B1E10BD0FB41CB5074B06AA08
:100220007B4469460090059800F0EDF9002069468E
:1002300000F0FCF91CBC5DF814FB00000904000090
:100240002DE9F0410E460446002020622046E16878
:10025000884730B3252805D0D4E901219047206A8A
:10026000401CF2E7E168204600278847050018D0C7
:10027000A5F14100192802D820354FF40067324615
:10028000294620462760FFF76BFF40B1012804D0C4
:10029000F61D26F007060836D8E7361DD6E72846AD
:1002A000DAE7206ABDE8F0812DE9F0410646002436
:1002B00010687529314616A510D0AFF300800028CC
:1002C00002DA404213A507E031688A0701D512A57A
:1002D00002E0490704D511A5012401E0AFF3008035
:1002E00000210A2206F1240709E0B0FBF2FCB0FB72
:1002F000F2F302FB1C00303078541846491C0028E9
:10030000F3D123462A463046BDE8F04100F01CB93F
:10031000000000002D0000002B0000002000000065
:1003200030B505460B462A4613F8014B12F8010B6F
:1003300008B1A042F8D01CB1002802D06D1CF1E732
:10034000284630BD40EA010310B59B070FD1042AAF
:100350000DD310C808C9121F9C42F8D020BA19BA90
:10036000884201D9012010BD4FF0FF3010BD1AB1F5
:10037000D30703D0521C07E0002010BD10F8013B4A
:1003800011F8014B1B1B07D110F8013B11F8014B71
:100390001B1B01D1921EF1D1184610BD02F0FF03C4
:1003A00043EA032242EA024200F002B84FF00002A0
:1003B0000429C0F0128010F0030C00F01B80CCF177
:1003C000040CBCF1020F18BF00F8012BA8BF20F8E5
:1003D000022BA1EB0C0100F00DB85FEAC17C24BF39
:1003E00000F8012B00F8012B48BF00F8012B7047E3
:1003F0004FF0000200B5134694469646203922BFBE
:10040000A0E80C50A0E80C50B1F12001BFF4F7AF08
:10041000090728BFA0E80C5048BF0CC05DF804EBEA
:10042000890028BF40F8042B08BF704748BF20F858
:10043000022B11F0804F18BF00F8012B7047704756
:100440007047704753EA020C00F069802DE9F04BC9
:100450004FF00006002B1FBFB3FA83F503FA05F433
:1004600024FA05F65E4012BF1643B2FA82F502FA8C
:1004700005F4C5F120051EBF22FA05FC44EA0C0470
:10048000203556EA044C4FEA144418BF641C4FF060
:1004900000084FF00009904271EB030C39D300299A
:1004A00019BFB1FA81F701FA07F6B0FA80F700FA3E
:1004B00007F6C7F120071EBF20FA07FC46EA0C0624
:1004C0002037B6FBF4FCA7EB0507103F07F01F0B26
:1004D000CBF120060CFA0BFB2CFA06F644BFB34610
:1004E0000026202FA4BF5E464FF0000B5BEA060CEF
:1004F00008BF4FF0010B19EB0B09ABFB027C48EB7B
:100500000608C01B06FB02CC0BFB03CC71EB0C01F5
:10051000C1E70B46024641464846BDE8F08B13B59D
:100520004FF000004FF00001AFF30080BDE81C4029
:10053000704710B500F080F8006810BD10B5044693
:1005400000F07AF8046010BD2DE9F0470D46994699
:100550009246044600F124080168880604D5E06943
:1005600021F01001216000E00120A84201DD471BBD
:1005700000E00027A1697A1902EB0900081AA061BE
:100580002078C00602D42046AFF30080002608E0A1
:10059000D4E901211AF806009047206A401C761C15
:1005A00020624E45F4DB2078C0060AD52046AFF322
:1005B000008006E0D4E9012130209047206A401CE9
:1005C0002062381EA7F10107F4DC07E0D4E901211D
:1005D00018F805009047206A401C2062281EA5F1EB
:1005E0000105F3DC2046AFF300802078000602D539
:1005F0000220BDE8F0870120FBE7000001694A1CEA
:1006000002610878704700B58FB0CDE90131002153
:10061000059105497944CDE9031011466846FFF775
:100620000FFE0FB000BD0000E5FFFFFF0A6802F8F3
:10063000010B0A607047000000487047A0080020C6
:1006400000487047A00800207546FFF7F9FFAE4646
:1006500005006946534620F00700854618B020B5CE
:10066000FFF7A4FDBDE820404FF000064FF0000763
:100670004FF000084FF0000B21F00701AC46ACE84A
:10068000C009ACE8C009ACE8C009ACE8C0098D46B7
:10069000704710B50446AFF300802046BDE8104017
:1006A000FFF770BD01491820ABBEFEE7260002002F
:1006B0007047FEE7704772B6FEE710B590F821105C
:1006C0000022022905D00421816380F82020012026
:1006D00010BD01680B6823F00E030B6001680B6806
:1006E00023F001030B6090F84030C46B012101FA44
:1006F00003F3636080F8211080F82020104610BDBD
:1007000010B590F821100024022903D00421816340
:1007100001243DE001680A6822F00E020A600168C7
:100720000A6822F001020A601A4A0168914201D166
:10073000012121E0174A1432914201D110211BE01E
:10074000144A2832914201D1891515E0114A3C32F0
:10075000914201D189140FE00E4A5032914202D1E8
:100760004FF4803108E00B4A6432914202D14FF4D9
:10077000801101E04FF08071064A083A5160012172
:1007800080F82110002180F82010416B01B18847CA
:10079000204610BD0800024070B5044600F008F97C
:1007A0000546601C02D004480078044400F000F9BB
:1007B000401BA042FAD370BDB80000202DE9F84FCD
:1007C000DFF8B8910024A9F1040B23460F2709F1A3
:1007D000040AABF1040EC9E00125A5402A40AA4253
:1007E0007DD1674ED1F804C0ACEB0608B44532D0D9
:1007F00014DCBCF1030F3AD009DCBCF1000F2AD0A5
:10080000BCF1010F1CD0BCF1020F31D11DE0BCF1D5
:10081000110F17D0BCF1120F2AD119E0B8F5881FBB
:1008200019D006DCB8F5803F15D0B8F5801F1FD170
:1008300011E0B8F5001F0ED0B8F5041F18D10AE07A
:10084000CB6815E0CB681B1D12E0CB6808330FE0C6
:10085000CB680C330CE08B682BB1012B4FF00803F5
:1008600003D0456104E0042302E0056100E00023B9
:10087000FF2A01D8064601E000F104064FEA84058C
:1008800001D9A5F12005D6F8008007FA05FC28EA71
:100890000C0803FA05F548EA0508C6F800804D681B
:1008A000ED0062D5374DAE6946F00106AE61AD6927
:1008B00024F0030605F001050095334D06EB050C09
:1008C000DCF80850A607360F07FA06F825EA0805EF
:1008D000DFF8B880404503D14FF0000817E044E04E
:1008E000DFF8AC80404502D14FF001080FE0DFF89F
:1008F000A480404502D14FF0020808E0DFF898805C
:10090000404502D14FF0030801E04FF0040808FA17
:1009100006F848EA0508CCF808804D68D9F8006068
:10092000ED024D4601D5164300E096432E604D681A
:10093000DAF80060AD02554601D5164300E0964353
:100940002E604D68DBF80060AD035D4601D51643AF
:1009500000E096432E604D68DEF80060ED037546BA
:1009600001D5164300E096432E60641C0D682A46AC
:10097000E5407FF431AFBDE8F88F00000804014086
:10098000000011100010024000000140000801406A
:10099000000C014000100140001401408068084034
:1009A00000D0012070470AB1016170470904FBE7DC
:1009B0000148806870470000B800002070B504004E
:1009C00025D094F83D00002520B984F83C502046FD
:1009D00000F0B8F8242084F83D002068016821F078
:1009E000010101602068016841F400410160206854
:1009F000016821F40041016000F00AFA4D4A616883
:100A0000914201D84C4900E04C49884201D2012072
:100A100070BD4B492368B0FBF1F15E6826F03F06DC
:100A20000E435E606368934206D94FF49673594350
:100A30004FF47A73B1FBF3F12368491C1E6A26F068
:100A40003F06314319626168914210D84900401E47
:100A5000B0FBF1F2521CC2F30B02042A01D20420B3
:100A600022E0B0FBF1F0401CC0F30B001CE0A268D8
:100A7000F2B301EBC10303EB0116431EB3FBF6F324
:100A80005B1C43F480431B0549D092B301EBC102C8
:100A900002EB0111401EB0FBF1F0401CC0F30B0053
:100AA00040F4804040F400402168CA694CF6FF736E
:100AB0009A431043C861D4E90710014320680268D3
:100AC00022F0C00211430160D4E903010143206810
:100AD000826848F2FF339A4311438160D4E90501EB
:100AE00008432168CA6822F0FF021043C86001E091
:100AF0000EE016E02068016841F001010160256404
:100B0000202084F83D00256384F83E50002070BD0D
:100B100001EB4106431EB3FBF6F35B1CB3E7012078
:100B2000C2E701EB4101401EB0FBF1F0401CC0F3F5
:100B30000B00B7E7A086010080841E0000093D007D
:100B400040420F0010B586B0002100910191029142
:100B5000039100681349884222D1134CA06940F0E8
:100B60000800A061A069694600F0080004904FF4F5
:100B70004070009012200190032003900B48FFF773
:100B80001DFE0B48416841F0E06141F00201416007
:100B9000E06940F40010E061E06900F400100490A6
:100BA00006B010BD0054004000100240000C01408F
:100BB000000001400248816802781144816070475A
:100BC000B8000020074810B5016841F0100101602D
:100BD000032000F075F80F2000F006F800F024F86C
:100BE000002010BD0020024070B50D4D04464FF4AA
:100BF0007A712878B1FBF0F00A490968B1FBF0F08E
:100C000000F0DCFA48B9102C07D200222146501E11
:100C100000F036F800206C6070BD012070BD00004F
:100C2000B8000020C40000200C4808B5816941F0DC
:100C300001018161816901F001010091C16941F007
:100C40008051C161C06900F0805000900448416843
:100C500021F0E06141F00071416008BD00100240E8
:100C600000000140002809DB00F01F020121914033
:100C70004009800000F1E020C0F80011704700003A
:100C8000F0B40E4B1B680C46C3F30223C3F10705F7
:100C9000042D00D90425191D072901D2002300E0E5
:100CA000DB1E012606FA05F1491E214099409E40AF
:100CB000761E16403143F0BC02F05AB90CED00E04C
:100CC000064900F0070208684FF6FF03184040EAA3
:100CD0000220034A10430860704700000CED00E05A
:100CE0000000FA052DE9F0470F46050061D0434E9C
:100CF000306800F00700B84209D2306820F00700E1
:100D000038433060306800F00700B84251D128689D
:100D10003B4C810712D5400703D5606840F4E06082
:100D200060602878000703D5606840F46050606018
:100D30006068A96820F0F000084360602878C00768
:100D400028D06868012810D02168022810D08907AF
:100D500000292EDA616821F0030101436160FFF789
:100D600027FE804641F288390DE021688903EFE7CC
:100D70008901EDE7FFF71CFEA0EB0801494502D908
:100D80000320BDE8F0876068696800F00C00B0EBF4
:100D9000810FEFD1306800F00700B8420BD93068FE
:100DA00020F0070038433060306800F00700B84298
:100DB00001D00120E5E72878400705D56068E9689B
:100DC00020F4E060084360602878000706D560687A
:100DD000296920F4605040EAC100606000F038F8F2
:100DE0006168084AC1F30311515CC84006490860B4
:100DF00006480068FFF7F8FE0020C2E70020024026
:100E000000100240F09B0008C4000020BC0000203D
:100E10000448054900684968044AC1F30221515C4D
:100E2000C8407047C400002000100240009C000829
:100E30000448054900684968044AC1F3C221515C6D
:100E4000C8407047C400002000100240009C000809
:100E50000E4A51680E4801F00C03042B11D0082BE8
:100E60000FD10C48C1F38343C903C05C0AD5516854
:100E7000084AC1F34041921E515C054A5043B0FB01
:100E8000F1F07047044948437047000000100240E9
:100E900000127A00E09B000800093D002DE9F84FA0
:100EA000040070D02078C04DC00749D06868C0F3F6
:100EB0008100012807D06868C0F38100022809D1A9
:100EC0006868C00306D52868800339D560680028A3
:100ED000E7D035E06068B0F5803F0BD010B1B0F5D9
:100EE000A02F11D0286820F480302860286820F4D2
:100EF000802002E0286840F480302860606890B16B
:100F0000FFF756FD06460AE0286840F48020286076
:100F1000F0E700BFFFF74CFD801B642873D82868FA
:100F20008003F7D50CE0FFF743FD064605E000BF60
:100F3000FFF73EFD801B6428F0D828688003F7D4B3
:100F400020789A4E80074FF001094FF0000839D5FC
:100F5000686810F00C0F07D06868C0F381000228A1
:100F600009D16868C00306D42868800714D52069B1
:100F7000012808D110E02069B0B1C6F80090FFF751
:100F800017FD074605E00AE1FFF712FDC01B022826
:100F9000C4D828688007F7D52868616920F0F80070
:100FA00040EAC10028600DE0C6F80080FFF700FDB0
:100FB000074604E0FFF7FCFCC01B022823D8286882
:100FC0008007F7D4207800072CD57948A169D9B1DA
:100FD000C0F80090FFF7ECFC074604E0FFF7E8FCE0
:100FE000C01B02280FD8686A8007F7D571484FF4F4
:100FF000FA510068B0FBF1F0009000BF0098411E6C
:101000000091FAD20EE080E0C0F80080FFF7D0FC3B
:10101000074604E0FFF7CCFCC01B022875D8686ABD
:101020008007F7D42078400760D5E8690027C00022
:1010300008D4E86940F08050E861E869012700F0D1
:10104000805000905C480168C90513D4016883464C
:1010500041F480710160FFF7ABFC824606E000BFFF
:10106000FFF7A6FCA0EB0A0064284ED8DBF80000CE
:10107000C005F5D5E06801280AD008B1052813D0CD
:10108000286A20F001002862286A20F0040002E0AB
:10109000286A40F001002862E06841F2883B98B17C
:1010A000FFF786FC82460BE0286A40F004002862C5
:1010B000EEE700BFFFF77CFCA0EB0A0159455AD8C8
:1010C000286A8007F6D50CE0FFF772FC824605E03F
:1010D000FFF76EFCA0EB0A0159454CD8286A80073F
:1010E000F6D41FB1E86920F08050E861E06988B368
:1010F0006968C1F38101022944D00228C6F86080E2
:1011000004D0FFF755FC044638E034E0FFF750FC0C
:10111000074604E0FFF74CFCC01B02282BD82868C8
:101120008001F7D4206AB0F5803F05D16868A168D6
:1011300020F4003008436860D4E908010843696876
:1011400021F4741108436860C6F86090FFF730FC22
:10115000044606E025E000BFFFF72AFC001B02283A
:1011600009D828688001F7D51BE000BFFFF720FCF5
:10117000001B022802D90320BDE8F88F28688001EF
:10118000F4D40EE00128F7D06868226A00F48031B8
:10119000914204D1616A00F47010884201D00120AC
:1011A000EAE70020E8E700000010024000004242A9
:1011B00080044242C40000200070004010B5401E70
:1011C000B0F1807F01D3012010BD4FF0E0246061B9
:1011D0000F21601701F0CCFE0020A06107202061E4
:1011E000002010BD7047704710B590F83C20012AD0
:1011F00022D0012280F83C20CA688C6822F4407218
:1012000022434C6822F4806222430C6822F400627C
:1012100022430C6922F4805222434C6922F400528A
:101220002243C969002322F480420A4301684A64C8
:1012300080F83C30002010BD022010BD70B590F841
:101240003C20012A26D0012480F83C40022280F86C
:101250003D2003685A689D6822F070060A68324390
:101260005A600D4B02689A4208D0B2F1804F05D007
:101270000A4B9A4202D00A4B9A4204D1496825F09F
:1012800080031943916080F83D40002180F83C10B4
:10129000084670BD022070BD002C014000040040D3
:1012A0000008004010B5040003D094F83D0010B1D0
:1012B00007E0012010BD002084F83C00204600F02B
:1012C0001FF8022084F83D00211D206801F0A2FBD8
:1012D000012084F8460084F83E0084F83F0084F83A
:1012E000400084F8410084F8420084F8430084F808
:1012F000440084F8450084F83D00002010BD000043
:1013000008B500680B49884212D10B48C16941F009
:101310000201C161C069002200F002000090114684
:101320001D20FFF7ADFCBDE808401D20FFF79ABC6B
:1013300008BD0000000400400010024090F83D107D
:10134000012901D001207047022180F83D10016879
:10135000CA6842F00102CA6000680B49884208D09E
:10136000B0F1804F05D00949884202D0084988422F
:1013700004D1816801F00701062903D0016841F01A
:101380000101016000207047002C01400004004072
:101390000008004070B5044690F83C000025012884
:1013A00017D0012684F83C60022084F83D002068B4
:1013B000826822F0770222F47F4282600868502817
:1013C00038D00DDC20284FD005DC90B3102811D187
:1013D0004AE0022070BD302846D040280AD13BE0C8
:1013E00060282FD070280DD0B0F5805F03D0B0F505
:1013F000005F12D0012584F83D60002084F83C0095
:10140000284670BDCB68D1E90121206801F04BFB73
:101410002068816841F0770109E0CB68D1E90121BA
:10142000206801F040FB2068816841F480418160C0
:10143000E1E719E0CA684968206801F0E9FB50213A
:10144000206806E0CA684968206801F0F2FB602164
:10145000206801F032FBCEE7CA684968206801F0D5
:10146000D7FB40212068F4E7226801461046F0E7E8
:101470002DE9F0410D46040003D094F83D0018B169
:1014800008E00120BDE8F081002084F83C002046FF
:1014900000F040F8022084F83D002068816844F2A2
:1014A000070291438160211D206801F0B3FA226890
:1014B00090689169166A2B68AF69034340F2033064
:1014C000814341EA0721A868EF6908434FF6FC41D0
:1014D0008843E96840EA0720014328692F6A000130
:1014E00040EA0730084369686D6926F0220646EA3B
:1014F0000515294393602268906154F8460B0162F8
:10150000012004F81F09E0752076E0762077A075A9
:101510000020B7E700B585B000210091019102914C
:10152000039101681A48B1F1804F1BD0194A9142CA
:1015300016D1C16941F00401C161C16901F0040122
:101540000491816941F0080181618069694600F078
:1015500008000490C02000900F4800BFFFF72EF94C
:1015600005B000BDC16941F00101C161C16901F06F
:1015700001010491816941F004018161806969463A
:1015800000F004000490032000900448E6E7000007
:101590000010024000080040000C0140000801401B
:1015A00070B590F83E60044690F83F5090F8423095
:1015B00090F84320022021B104290ED0012E1BD126
:1015C00014E0012E18D1012B16D184F83E0084F8C6
:1015D000420001220021206820E0012D0CD1012AC7
:1015E0000AD184F83F0084F8430014E0012D03D1B0
:1015F000012B01D1012A01D0012070BD84F83E00E9
:1016000084F83F0084F8420084F84300012200215E
:10161000206801F03BFA01220421206801F036FA2B
:101620002068016841F001010160002070BD704731
:101630002DE9F04104460068C66805694FF00007CF
:10164000A90713D5B10711D5F91E01610120207733
:10165000206880698007204602D0FFF7E8FF04E099
:1016600000F0A4F8204600F049F92777680716D55E
:10167000700714D521686FF00400086102202077FC
:101680002068806910F4407F204602D0FFF7CFFF2A
:1016900004E000F08BF8204600F030F927772807A7
:1016A00015D5300713D521686FF0080008610420B4
:1016B00020772068C0698007204602D0FFF7B7FF77
:1016C00004E000F073F8204600F018F92777E806E8
:1016D00016D5F00614D521686FF0100008610820B7
:1016E00020772068C06910F4407F204602D0FFF7C1
:1016F0009EFF04E000F05AF8204600F0FFF827773C
:10170000E80708D0F00706D021686FF001000861F3
:10171000204600F043F9280608D5300606D5216892
:101720006FF0800008612046FFF75CFD680608D571
:10173000700606D521686FF040000861204600F071
:101740003DF9A8060AD5B00608D521686FF020003B
:1017500008612046BDE8F041FFF745BDBDE8F081D6
:1017600000B585B0002100910191029103910068BC
:101770000B49884212D10B48816941F00401816113
:101780008069694600F0040004904FF410600090F6
:101790000220019003900448FFF710F805B000BD47
:1017A000002C01400010024000080140704770B555
:1017B000044690F83C0000260D4601280FD0012079
:1017C00084F83C006AB1042A1DD0082A2FD00C2AC4
:1017D0003FD00126002084F83C00304670BD022036
:1017E00070BD206801F072F92068816941F008013C
:1017F00081612068816921F004018161206881692B
:101800002A69114311E0206801F088F92068816994
:1018100041F4006181612068816921F48061816106
:10182000206881692A6941EA02218161D2E7206842
:1018300001F0A0F92068C16941F00801C161206888
:10184000C16921F00401C1612068C1692A6911439D
:1018500011E0206801F0BAF92068C16941F4006123
:10186000C1612068C16921F48061C1612068C169DA
:101870002A6941EA0221C161ACE710B5040003D036
:1018800094F83D0010B107E0012010BD002084F85D
:101890003C00204600F01EF8022084F83D00211D87
:1018A000206801F0B7F8012084F8460084F83E0073
:1018B00084F83F0084F8400084F8410084F8420036
:1018C00084F8430084F8440084F8450084F83D001F
:1018D000002010BD08B500680649884208D10648B6
:1018E000816941F400618161806900F400600090C9
:1018F00008BD0000002C01400010024070470000AD
:1019000010B50446022249B104290ED0082913D08B
:1019100094F84100012816D0012010BD94F83E0033
:101920000128F9D184F83E200FE094F83F00012807
:10193000F2D184F83F2008E094F840000128EBD170
:1019400084F8402001E084F841200122206801F061
:101950009DF80F492068884203D1426C42F400424E
:1019600042642068884208D0B0F1804F05D0094910
:10197000884202D00849884204D1816801F00701F9
:10198000062903D0016841F001010160002010BD6B
:10199000002C0140000400400008004010B5006821
:1019A0000449884205D101F0B1FE03498878401C02
:1019B000887010BD000400409800002070477047F8
:1019C000704710F8411F407808437047F8B5016828
:1019D00004460868CA684B6910F00F0F4FF0000505
:1019E00059D003F0010602F49077374365D0C10760
:1019F00005D0D10503D5616C41F001016164410757
:101A000005D5D90703D0616C41F0020161648107FB
:101A100005D5D90703D0616C41F004016164010769
:101A200007D502F02001314303D0616C41F0080179
:101A30006164616C00293AD0800604D5900602D515
:101A4000204601F04EF920684069616CC0F38010B7
:101A5000090700D460B3204601F01CF920684069F2
:101A6000400621D52068143050E8001F21F04001C5
:101A700040E80012002AF5D1E06BA8B16D4941633E
:101A8000E06BFEF73DFE002811D0E06B416B01B02A
:101A9000BDE8F040084783060FD593060DD52046D4
:101AA000BDE8F84001F01DB92046FFF789FFF8BDF9
:101AB0002046FFF785FF6564F8BD266B2023012EC5
:101AC0007CD1C6067AD5D60678D5086848680090D5
:101AD00048694FF00206400640D5E16B086840684F
:101AE0000004000CE8D0A28D8242E5D9E085886927
:101AF00020282DD020680C3050E8001F21F4807180
:101B000040E80012002AF5D12068143050E8001F88
:101B100021F0010140E80012002AF5D120681430BC
:101B200050E8001F21F0400140E80012002AF5D1E2
:101B300084F84230256320680C3050E8001F21F003
:101B4000100140E80012002AF5D1E06BFEF7B5FD68
:101B50006663A08DE18D401A81B22AE0A08DE18DEF
:101B6000401A81B2E08D0028A6D00029A4D02268B6
:101B70000C3252E8000F20F4907042E80007002F6A
:101B8000F5D12068143050E8002F22F0010240E81F
:101B90000027002FF5D184F84230256320680C30EF
:101BA00050E8002F22F0100240E80023002BF5D16E
:101BB00066632046FFF703FFF8BDFFE705062BD558
:101BC000150629D594F841002128F5D1A068B0F573
:101BD000805F01D12069B0B1206A411C2162216877
:101BE00000784860E08C401E0004000CE084E3D1E3
:101BF0002068C16821F08001C1602068C16841F09F
:101C00004001C160D8E7206A0088C0F3080048603E
:101C1000206A801C2062E5E74006CDD55006CBD572
:101C2000CA68204622F04002CA6084F8413000F0C1
:101C30003DF9C1E7852C000870B5040004D094F884
:101C40004100002510B106E0012070BD84F840502D
:101C5000204600F023F8242084F841002068C16861
:101C600021F40051C160204601F09CF82068016910
:101C700021F4904101612068416921F02A0141610C
:101C80002068C16841F40051C1606564202084F877
:101C9000410084F842006563002070BD30B585B016
:101CA000002400940194029403942B4D03682B4864
:101CB00002210322AB422AD1C36943F40033C3613A
:101CC000C36903F400330493836943F0040383611D
:101CD0008069234D00F0040004900420CDE9000148
:101CE000039269462846FEF769FD0820CDE9000405
:101CF000694628460294FEF761FD0022114626201F
:101D0000FEF7BEFF2620FEF7ADFF05B030BD154D36
:101D1000AB42FAD1C36943F48023C361C36903F4BE
:101D200080230493836943F00803836180690392ED
:101D300000F0080004902815CDE900010A4D69461D
:101D40002846FEF73BFDE814CDE900046946284625
:101D50000294FEF733FDD8E7004400400010024033
:101D60000008014000480040000C014090F842305B
:101D7000202B01D00220704721B11AB10023036348
:101D800001F06CB8012070472DE9F0411C48002695
:101D90000178FF2906D306704FF480711948FEF7C9
:101DA00005FB25E0174C037963544278F2B9C278F9
:101DB0008D1A655D3C2D19D1521CD2B2C2703E2BDA
:101DC00001D00E2A12D30F4F00258A1A0F3F4B1C49
:101DD00006E000BF14F802C007F805C06D1CEDB2A4
:101DE000521C9A42F6DB01224270C670491C0170F7
:101DF000BDE8F04102490122091D0348FFF7B6BFC3
:101E00009800002099050020100800202DE9F843D3
:101E1000044690F84100984616460D46202802D008
:101E20000220BDE8F88385B17EB1002060642120E6
:101E300084F84100FEF7BCFDA6848146E684A068D4
:101E40002027B0F5805F02D003E00120E9E7206998
:101E500010B12E4600250EE000260CE08021204621
:101E600001F017F8A8B9C6B116F8010B216848604F
:101E7000E08C401EE084E08C4B464FF00002CDF831
:101E800000800028EAD14FF04001204601F001F81F
:101E900040B184F841700320C3E735F8020BC0F36A
:101EA0000800E3E784F841700020BAE77047FEE7D6
:101EB00070B501220E4D540221462846FEF773FDEF
:101EC0000122160231462846FEF76DFD00F05EF94C
:101ED000002221462846FEF766FD00F057F9002251
:101EE00031462846FEF75FFDBDE8704000F04EB970
:101EF000000C014070B50B4D4FF4007400222146D8
:101F00002846FEF750FD012211022846FEF74BFD40
:101F100000F03CF921462846BDE870400122FEF75A
:101F200042BD0000000C014070B50C4C0122510272
:101F30002046FEF738FD00F029F901221502294656
:101F40002046FEF730FD00F021F900222946204608
:101F5000FEF729FDBDE8704000F018B9000C014003
:101F600010B50E4C002208212046FEF71CFD00F0A3
:101F700017F8012210212046FEF715FD00F010F899
:101F8000002210212046FEF70EFD00F009F8204641
:101F90000122BDE810400821FEF705BD000C0140FC
:101FA0000020401CC0B20A28FBD370470C4800B583
:101FB000816985B041F0080181618069694600F05E
:101FC0000800049018200090032003901120019035
:101FD0000448FEF7F3FB00F09DF805B000BD0000DB
:101FE00000100240000C014010B50C4C01220821E9
:101FF0002046FEF7D8FCFFF7D3FF01221021204630
:10200000FEF7D1FCFFF7CCFF002210212046FEF79F
:10201000CAFCBDE81040FFF7C3BF0000000C014040
:102020002DE9F0410024134E074625466006040EB4
:10203000012210213046FEF7B6FCFFF7B1FF082160
:102040003046FEF7ABFC08B1641CE4B2002210215C
:102050003046FEF7A8FCFFF7A3FF6D1CEDB2082D7C
:10206000E4D327B1FFF77CFF2046BDE8F081FFF7FE
:10207000BBFFF9E7000C014070B5154E0546002482
:10208000280601D5012200E0002208213046FEF793
:102090008AFCFFF785FF012210213046FEF783FC02
:1020A000FFF77EFF002210213046FEF77CFC072C54
:1020B00004D1012208213046FEF775FC6806050EA2
:1020C000FFF76EFF641CE4B2082CD9D370BD00008A
:1020D000000C014010B50E4C012208212046FEF7ED
:1020E00062FC012210212046FEF75DFCFFF758FF3D
:1020F000002208212046FEF756FCFFF751FF002280
:1021000010212046FEF74FFCBDE81040FFF748BF06
:10211000000C014010B50A4C002208212046FEF7B1
:1021200042FC012210212046FEF73DFCFFF738FF5C
:1021300020460122BDE810400821FEF734BC000013
:10214000000C014070B5104D012208212846FEF711
:102150002AFCFFF725FF012210212846FEF723FC69
:10216000FFF71EFF08212846FEF718FC08B10124DE
:1021700000E00024002210212846FEF714FCFFF79F
:102180000FFF204670BD0000000C01400320401EE0
:10219000C0B2FCD270477CB514460D4606466B466D
:1021A00006223B21682000F029F800280BD1BDF859
:1021B000001049BA3180BDF8021049BA2980BDF833
:1021C000041049BA21807CBD7CB514460D460646F4
:1021D0006B4606224321682000F010F800280BD13E
:1021E000BDF8001049BA3180BDF8021049BA298003
:1021F000BDF8041049BA21807CBD00002DE9F041F2
:102200001D4614460F460646FFF764FF7006000E93
:10221000FFF732FFFFF796FF20B1FFF77BFF0120AA
:10222000BDE8F0813846FFF727FFFFF78BFFFFF788
:1022300051FF012000EB4600C0B2FFF71DFFFFF782
:1022400081FF09E0012C0DD05FF00100FFF7E8FEEF
:10225000641E05F8010BE4B2002CF3D1FFF75AFF1E
:102260000020DDE70020F1E72DE9F0411E4615468C
:102270000F460446FFF72EFF6006000EFFF7FCFE38
:10228000FFF760FF60B93846FFF7F6FEFFF75AFF29
:1022900000240CE0305DFFF7EFFEFFF753FF20B1A5
:1022A000FFF738FF0120BDE8F081641CE4B2AC42C6
:1022B000F0D3FFF72FFF0020F5E70000F0B585B061
:1022C000002620480096019602960396816941F007
:1022D00010018161816901F010010491816941F06F
:1022E00020018161816901F020010491816941F03F
:1022F00004018161816901F004010491816941F067
:10230000080181618069104F00F0080004900022EC
:102310004FF219013846FEF746FB012402250094CE
:10232000CDE90145694638460395FEF747FA4FF275
:10233000180003958DE8510069463846FEF73EFACD
:1023400005B0F0BD00100240000C01400D4810B572
:102350000B4901600C49416000214FF480428160CB
:10236000C0E9031241618161C1610162FEF726FB90
:10237000002803D0BDE81040FEF79DB910BD000055
:10238000005400409C060020A086010010B592B0C9
:1023900000240F941C2168461094FEF729F8202190
:1023A00007A8FEF725F825482349C0E9001441F69F
:1023B0001F41C0E90241046144618461FFF75DFA95
:1023C00008B1FEF778F90F940FA91C481094FEF796
:1023D00035FF08B1FEF76FF9602000904FF4E1502F
:1023E000CDE901040394049405940022694613483E
:1023F0000694FFF7DCF908B1FEF75DF90C22694697
:102400000E48FFF7D4F908B1FEF755F90794089480
:1024100009944FF400500A94CDE90B4007A90748EE
:102420000E94FEF7E1FE08B1FEF745F90348FFF709
:1024300097F912B010BD0000002C0140F0060020FA
:1024400010B58CB024216846FDF7D2FF0024154852
:1024500009944FF080410A94C0E900144FF6FF71CF
:10246000C0E90241046184610320CDE90004012038
:10247000CDE902040494CDE9054007946946094872
:102480000894FEF7F5FF08B1FEF715F9099409A9BC
:1024900004480A94FEF7D2FE002801D0FEF70BF99B
:1024A0000CB010BD3807002010B586B000241748C6
:1024B00000940194029403940494134905940160D8
:1024C00041F61F41C0E901146321C0E9031484618E
:1024D000FEF7E8FE08B1FEF7EEF84FF480500090EA
:1024E00069460A48FEF756FF08B1FEF7E4F804947F
:1024F00004A906480594FEF7A1FE002801D0FEF7C6
:10250000DAF806B010BD000000040040800700208B
:1025100010B58CB024216846FDF76AFF00241648E8
:10252000099414490A94C0E900144FF6FF71C0E9F8
:102530000241046184610320CDE900040120CDE95A
:1025400002040494CDE90540079469460A480894BA
:10255000FEF78EFF08B1FEF7AEF8099409A9064808
:102560000A94FEF76BFE002801D0FEF7A4F80CB029
:1025700010BD000000080040C80700200C4810B53E
:102580000A4901604FF4E1314160002181600C2271
:10259000C160C0E904128161C161FFF74DFB0028F1
:1025A00003D0BDE81040FEF786B810BD00440040DF
:1025B000100800200C4810B50A4901604FF4E131C1
:1025C0004160002181600C22C160C0E90412816178
:1025D000C161FFF731FB002803D0BDE81040FEF7D2
:1025E0006AB810BD0048004058080020FEE7FEE72A
:1025F00030B40021084B0A465FF0000003EBC00432
:10260000401CC0B262548028F8D3491CC9B20829C2
:10261000F2D330BC00F0BAB8D800002030B5CC08F6
:1026200001F0070301259D40EBB2064D05EBC00507
:10263000C808285C0AB1184302E063EA0000C043FE
:10264000285530BDD800002030B54E4885B081698E
:1026500041F00801816180694B4C00F00800049052
:102660004FF4407000900120019000200290032060
:10267000039069462046FEF7A1F801221102204688
:10268000FEF791F90122550229462046FEF78BF903
:10269000002229462046FEF786F9C820FEF77CF87E
:1026A000012229462046FEF77EF90021AE2000F0E7
:1026B00031F90021084600F02DF90021102000F02A
:1026C00029F90021402000F025F90021812000F0A7
:1026D00021F90021CF2000F01DF90021A12000F0F8
:1026E00019F90021C82000F015F90021A62000F0FA
:1026F00011F90021A82000F00DF900213F2000F081
:1027000009F90021D32000F005F90021084600F066
:1027100001F90021D52000F0FDF80021802000F013
:10272000F9F80021D92000F0F5F80021F12000F09F
:10273000F1F80021DA2000F0EDF80021122000F07D
:10274000E9F80021DB2000F0E5F80021302000F05E
:10275000E1F80021202000F0DDF80021022000F047
:10276000D9F800218D2000F0D5F80021142000F0C8
:10277000D1F8FFF73DFF0021AF2000F0CBF805B006
:1027800030BD000000100240000C014070B5184E32
:10279000002400BF04F1B000C0B2002100F0BAF87C
:1027A0000021084600F0B6F80021102000F0B2F831
:1027B000FFF77EFB782000F0CBF8FFF7B5FB402059
:1027C00000F0C6F8FFF7B0FB5FF0000506EBC500B0
:1027D000005D00F0BDF8FFF7A7FB6D1CEDB2802D8A
:1027E000F4D3FFF787FB641CE4B2082CD2D370BD8E
:1027F000D80000202DE9FC4F1C460E4682468B4631
:102800000190082B0DD0600700D0012000EBD40010
:1028100061084843C0B28146203AD0B200900020FF
:102820004BE00620F7E7082C13D00C2C18D0102C06
:102830001BD0182C44D10098234900EBC00000BFE6
:1028400001EB8001002711F80850E80712D00B9A1D
:1028500013E000981D4900EB400001EB4001F1E757
:1028600000981B4900EB4000EAE71A49009801EB89
:102870000011E7E70B9828B3002231465046FFF7D6
:10288000CDFE761C7F1C6D08FFB2F6B2082FDCD39C
:102890000AF1010000F0FF0A082C0AD00199AAEB06
:1028A0000100B0EB540F04D10BF108008A4600F090
:1028B000FF0B08F101005E46C0B280464845B2D326
:1028C000BDE8FC8F0122D8E75A8A0008CE7D0008B7
:1028D000F67F00086A8400082DE9F8411E46154677
:1028E00088460446079F0BE0334641462046009742
:1028F000FFF780FF082E0AD004EB5600C4B26D1C0F
:102900002A78A2F120005E28EED9BDE8F881A41D46
:10291000E4B2F4E770B50C460546FFF7C9FA782033
:1029200000F016F8FFF700FB0CB1402000E000209B
:1029300000F00EF8FFF7F8FA284600F009F8FFF764
:10294000F3FABDE87040FFF7D5BA70477047000052
:102950002DE9F041124F002405464FF40078BE15D2
:10296000280601D5012200E0002241463846FEF744
:102970001AF8FFF70BFC012231463846FEF713F830
:10298000FFF704FC002231463846FEF70CF86806D3
:10299000641C050EE4B2082CE2D3BDE8F08100000F
:1029A000000C0140FEF706B930B58FB0282168460B
:1029B000FDF71EFD14210AA8FDF71AFD01210804E8
:1029C000CDE900100024029402250491CDE90750BE
:1029D0004FF4E01009906846FEF760FA08B172B64D
:1029E000FEE70F20CDE90A054FF48060CDE90C40E9
:1029F00002210AA80E94FEF775F9002801D072B6DC
:102A0000FEE70FB030BD70470148FEF711BE000071
:102A100080070020F0B50268194B1A4C1A4D4FF090
:102A20008047984205D0B84203D0A04201D0A842C6
:102A300003D122F070064A683243984205D0B8426A
:102A400003D0A04201D0A84203D122F44074CA6846
:102A500022434C6922F08002224302608A68C262EB
:102A60000A688262984201D10969016301214161CA
:102A70000169C90703D0016921F001010161F0BDBD
:102A8000002C0140000400400008004010B501F097
:102A90001F030121046A99408C430462016A9A4031
:102AA0001143016210BD10B5846842EA032224F488
:102AB0007F440A432243826010BD826822F0700284
:102AC0000A4342F0070181607047000030B5036A95
:102AD000026A22F0010202624268846924F07305EE
:102AE0000C682C4323F002058B682B430A4DA84247
:102AF0000BD123F00805CB6822F440722B434D69BB
:102B000023F0040315438A692A43426084614968BB
:102B10004163036230BD0000002C014030B5026A01
:102B2000036A23F010030362436884690D6824F488
:102B3000E64444EA05248D6822F0200242EA0512A8
:102B40000B4DA8420ED1CD6822F0800242EA051258
:102B50004D6923F4406343EA85038D6922F0400206
:102B600043EA85034360846149688163026230BD42
:102B7000002C014030B5036A026A22F480720262BE
:102B80004268C46923F4007324F073050C682C4375
:102B90008D6843EA05230C4DA8420ED1CD6823F47D
:102BA000006343EA05234D6922F4405242EA0512CC
:102BB0008D6923F4806342EA05124260C46149686A
:102BC000C163036230BD0000002C014030B5046ACF
:102BD000026A22F4805202624268C3690D6823F4DB
:102BE000E64343EA05238D6824F4005444EA05349F
:102BF000064DA84204D14D6922F4804242EA851272
:102C00004260C36149680164046230BD002C014028
:102C100010B5036A046A24F001040462846924F094
:102C2000F00444EA021423F00A020A4384610262B7
:102C300010BD10B5036A046A24F0100404628469AC
:102C400023F0A00324F4704444EA023243EA011161
:102C50008261016210BD000070B5094D0E46E96A3F
:102C600004F0A8F80446304604F078F8A96A04F0A5
:102C7000A1F8214603F00CFFBDE8704004F032B823
:102C80003800002010B5406A0021C185C184FEF7DC
:102C900097FE10BD01680C3151E8002F22F49072AC
:102CA00041E80023002BF5D10168143151E8002FD1
:102CB00022F0010241E80023002BF5D1016B01292C
:102CC00009D101680C3151E8002F22F0100241E8CF
:102CD0000023002BF5D1202180F842100021016350
:102CE000704708B590F84210222901D0022008BD93
:102CF00082684FF480539A4201D1016921B1816AFF
:102D00009A421BD04AB10AE00268816A5268C2F353
:102D100008020A80816A891C08E0026972B10268AF
:102D2000526802F07F020A70816A491C8162C18D7B
:102D3000491E0904090CC18503D01BE002685268D2
:102D4000F1E70168CA6822F02002CA600168CA6817
:102D500022F48072CA6001684A6922F001024A6165
:102D6000202180F8421000214163026B012A03D028
:102D7000FFF70AF8002008BD016301680C3151E833
:102D8000002F22F0100241E80023002BF5D101684A
:102D90000A68D20602D50A6849680091818DFEF75B
:102DA0000EFEE7E770B5044600680169E26821F4A9
:102DB0004051114301612169A068084361690843DA
:102DC0002168CA6841F20C639A430243CA602068D2
:102DD0004169A26921F44071114341611E49206893
:102DE000884202D1FEF724F801E0FEF711F800EB6B
:102DF000C00101EB0012606864218000B2FBF0F3B7
:102E0000B3FBF1F36FF018067343B2FBF0F5B2FBBE
:102E1000F0F605EB8305322303EB0515B5FBF1F561
:102E2000B6FBF1F605F0F00505EB0615B2FBF0F682
:102E3000B2FBF0F0B0FBF1F06FF01802504306EB7C
:102E4000800003EB0010B0FBF1F0216800F00F00F0
:102E50002844886070BD000000380140816282858E
:102E6000C28500214164222180F84210016921B10C
:102E70000168CA6842F48072CA6001684A6942F017
:102E800001024A610068C16841F02001C160002070
:102E900070472DE9F843984617460D460446089EAC
:102EA00024E0701C22D0FDF783FDA0EB0800B042A7
:102EB0001AD8CEB12068C168490717D5802D15D022
:102EC000402D13D00168C94309070FD401680025BC
:102ED000406800902046FFF7DDFE0820606484F81B
:102EE00040500120BDE8F8830320FBE7206800681C
:102EF00035EA000004D00020B842D2D00020F1E72B
:102F00000120F9E70148FEF761BD0000100800202C
:102F1000FEE700002DE9F0410A4D0E460746114636
:102F2000E86903F047FF04463146384604F00EF8DE
:102F3000A96903F03FFF214603F0AAFDBDE8F04177
:102F400003F0D0BE38000020490050EAC12018BF6D
:102F500004204A0D18BF40F0010040F2FF72B2EBAE
:102F6000515F08BF40F00200012808BF05207047EC
:102F70000907090E002804DB00F1E02080F80014A6
:102F8000704700F00F0000F1E02080F8141D70473A
:102F90002DE9F0414F1E00EBC7010446D1E90001C5
:102FA00015461E4637F006020DD02A46334603F07A
:102FB00069FA7F1E04EBC703D3E9002303F012F87C
:102FC00037F00602F1D1022F25D0042F13D0062F9F
:102FD00018BFBDE8F0812A46334603F053FAD4E91E
:102FE0000A2302F0FFFF2A46334603F04BFAD4E9E6
:102FF000082302F0F7FF2A46334603F043FAD4E9E8
:10300000062302F0EFFF2A46334603F03BFAD4E9E9
:10301000042302F0E7FF2A46334603F033FAD4E9EB
:10302000022302F0DFFF2A46334603F02BFAD4E9ED
:103030000023BDE8F04102F0D5BF012204F037B80B
:1030400002F0D0BF002213461046114603F086B8A6
:10305000024A0020110704F02AB8000001FDFFFF1A
:103060002DE9FE4F07460E460025684601F03CF864
:1030700000246FF00F0AE8464FF0010957F82400CA
:1030800056F82410401A00D5404203F067FE51461E
:1030900004F03BF858F8241011F0FF4F0BD003F068
:1030A0005FFD4FF07E5103F05BFF0A4920F00040C6
:1030B000884205DC07E0084908440849884202D3F1
:1030C00009FA04F00543641C032CD7DB2846BDE84D
:1030D000FE8F0000295C0F3E666666C19A99D90092
:1030E0002DE9F04D8D4F21F0004A86B005460C4683
:1030F000BA452ADBAAEB070028430AD08848824554
:1031000001DC1AD1CDB106B02846BDE8F04DFFF77D
:1031100094BF844A844B284603F0B4F907460E4610
:10312000824A834B2846214603F0ACF906B03A4662
:103130003346BDE8F04D02F055BF0120FDF7FEF922
:1031400006B0BDE8F04DFFF77DBF7A48824542DA10
:10315000BAF1795F0BDA2846FFF7F6FE042808BFBC
:10316000FFF776FF284606B02146BDE8F08D2A46D7
:103170000B46104603F086F9834602466E480E461B
:103180000B4606217844FFF703FF5A46334603F007
:1031900079F9804669488A465A463346042178447C
:1031A000FFF7F6FE5A46334603F06CF900223B4621
:1031B00002F018FF02460B464046514602F0CEFF91
:1031C0002A46234603F05EF906B02A462346BDE8A8
:1031D000F04D02F007BF284624F0004100223D4692
:1031E0003B4603F04DFA4FF0FF3203F060FF064616
:1031F000024653480F460B4606217844FFF7C8FEA7
:1032000032463B4603F03EF9CDE900014D483246D7
:103210003B4604217844FFF7BBFE32463B4603F0B1
:1032200031F900222B4602F0DDFE83460291304642
:10323000394602F009FE804643480D46504517DCEA
:10324000DDE900015A46029B02F088FF42462B4608
:1032500003F018F942462B4602F0C4FE012203F0A7
:1032600026FF304A304B03F0FDFA304A304B4CE039
:103270004FF0000A52460B46404602F0B3FECDE93D
:10328000031052462B461046194603F0FBF832460F
:103290003B4603F0F5F9DDE9033202F05FFF064635
:1032A0000F46DDE900015A46029B02F057FF8346B4
:1032B000009101223046394603F0F9FE194A1A4BB3
:1032C00003F0DEF906460F4601224046294603F088
:1032D000EEFE5A46009B03F0D5F832463B4603F01B
:1032E000C1FA06460F4601225046294603F0DFFE8A
:1032F0000E4DDFF858802A46434603F0C1F93246A6
:103300003B4603F0BDF92A46434603F0B9F9002CC9
:10331000D8BF81F0004106B0BDE8F08D0000F03F5D
:103320000000F07F075C143326A6913C182D44540E
:10333000FB21F93F0000E03F806A0000966A000030
:103340000A6A0000206A00003333EF3FFB21E93FA7
:103350002DE9F84F04460D4621F0004000917349D5
:10336000814211DC7249884201DC06D12CB1204631
:103370002946BDE8F84FFFF760BE6E48002DCCBF70
:103380006D496E49BDE8F88F6D49814211DD6D4987
:103390008142D8BF4FF0FF366DDD20462946FFF74A
:1033A000D3FD042808BFFFF753FE20462946BDE899
:1033B000F88F6549654F25F00045814233DD64494A
:1033C000814219DD002632464FF0804320462946CF
:1033D00002F008FE80468A4601222046294603F074
:1033E00066FE00223B4603F03DFA4246534602F099
:1033F000B5FE04460D463EE001260022BA463B4695
:103400002046294602F0EEFD80460F460022534634
:103410002046294603F026FA42463B4602F09EFE2D
:1034200004460D4627E04B4981421BDDDFF828A109
:103430000226002253462046294603F023F80022A4
:103440003B4602F0CFFD80460F4600225346204601
:10345000294603F007FA42463B4602F07FFE044647
:103460000D4608E0032622462B4600203B4902F089
:1034700075FE04460D4622462B461046194603F0BB
:1034800001F88B46824602460B4602F0FBFF0746D8
:103490000246334888460B4606217844FFF778FDFC
:1034A00052465B4602F0EEFF82462E488B463A4675
:1034B000434605217844FFF76BFD3A46434602F048
:1034C000E1FF02460B46002E504659460CDA02F048
:1034D00089FD22462B4602F0D5FF01B022462B463D
:1034E000BDE8F04F03F0CCB802F07CFD22462B463D
:1034F00002F0C8FF1C4A7A4402EBC603D3E900235A
:1035000003F0B0F922462B4603F0ACF9174A7A448F
:1035100002EBC603D3E9002303F0B2F8009A002AB5
:10352000B8BF81F00041BDE8F88F000000001044F2
:103530000000F07F182D4454FB21F93FFB21F9BF17
:103540000000DC3F0000203E0000F33F0000F03FA1
:103550000000E63F008003400000F83F0000F0BF9D
:1035600022680000E06700007E67000046670000F8
:103570002DE9F04D9446CCF1000423F000464CEACE
:103580000404594F46EAD4749A46884621F0004212
:10359000BC4206D8454240EA050442EAD474BC4223
:1035A00004D9BDE8F04D6246FFF74ABDAAF1405587
:1035B000A5F17F6555EA0C040BD0022404EAAA7435
:1035C0004A4DDFF82CE144EAD87452EA000B04D0EB
:1035D0000CE0BDE8F04DFFF7BBBE002C14BF012C82
:1035E000BDE8F08D022C30D0032C32D056EA0C0B03
:1035F0000AD0BE4220D1BA4209D126F0804622F03C
:1036000080423346114617E000291ADB25E0DFF837
:10361000E4B0FB44002C04BFDBE90001BDE8F08D01
:10362000012C02BFDBE9000181F00041BDE8F08D13
:10363000022C0AD0032C0CD0BA4212D1B8F1000FE0
:103640000BDA2A482C49BDE8F08D28462B49BDE805
:10365000F08D28467146BDE8F08D24482849BDE824
:10366000F08D921B12153C2AC4BF204F244E10DC53
:10367000BAF1000FBEBF12F13C0F00273E4608DB37
:10368000624602F06BFD21F00041FFF761FE074644
:103690000E4694B1012C08BF86F000460DD0194AA1
:1036A000194B022C3846314615D003F0DBF82A4678
:1036B000BDE8F04D114B03F0D5B800221346384653
:1036C000314602F0A3FE04BF0220FCF737FF384664
:1036D0003146BDE8F08D03F0C5F82A46BDE8F04D4F
:1036E000064B02F0CDBF00000000F07F182D4454BF
:1036F000FB2109C0DA660000FB21F9BFFB2109406C
:10370000FB21F93F075C143326A6A13C70B5254880
:1037100002F038FB244C4042A063244802F032FB04
:1037200004F14802111FE063081F01F03FFC221D55
:10373000911E881EFEF748FD04F10A02911E881EA4
:10374000FEF729FDD4E90E12E06802F0D9FB064627
:103750002065B4F9000003F001FB0546304603F094
:10376000FDFA616903F094F92A46616CFFF7D2FB18
:10377000E064B4F9040003F0F1FA2169FFF76CFA90
:103780006065E16C0A1A0844C4E9162004F15C0182
:10379000081F00F028FFD4E91601BDE8704001F0D1
:1037A0009DBB00003807002038000020C80700201B
:1037B00008B560B120208DF8000028208DF80100A8
:1037C00030208DF8020038208DF8030004E0A32299
:1037D00004216846FCF7E2FD6A46042140F69E207B
:1037E00002F094FA01F052FF08BD00003EB5044615
:1037F00002208DF80000CA208DF80100E3208DF82A
:10380000020009208DF803006A460421682002F0B6
:103810007DFAA3208DF80000610609D5C0218DF83E
:103820000110C8218DF80210C2218DF8031005E0A7
:103830008DF801008DF802008DF8030014F4C07FAC
:1038400009D0C4218DF80410CC218DF80510C621B3
:103850008DF8061005E08DF804008DF805008DF850
:1038600006008DF808008DF807008DF809006A46FB
:103870000A2140F6A72002F049FAA0074FF0D80528
:1038800003D020208DF8000001E08DF800506A463A
:10389000012140F6B62002F039FAA00601D5012038
:1038A00000E0002000F08EF814F4C07F1ED0E00588
:1038B0000AD5B2208DF800008B208DF80100B620CB
:1038C0008DF802009B2009E0B0208DF800008020D8
:1038D0008DF80100B4208DF8020090208DF80300CF
:1038E0006A46042140F6A22002F010FAE1074FF4E4
:1038F0000B6022D0F8218DF800106A46012102F0F9
:1039000005FAFA21072000F077FA072000F042FAC2
:10391000012000F05FFA642000F002FB4FF4FA701F
:1039200000F00EFBC821254800F0FCF9282000F02B
:1039300011FA0A2000F01EFA05E08DF800506A46E0
:10394000012102F0E3F9A00703D5D9208DF800008A
:1039500001E08DF800506A46012140F23D7002F00E
:10396000D5F9600701D5012000E0002000F048F8FB
:10397000E00601D5012000E00020FFF719FF104DFF
:1039800044F00800688101F081FE0020A873600601
:1039900001D50620A87314F4C07F02D0A87B801D37
:1039A000A87314F0140F02D0A87B1030A873A007DE
:1039B00002D0A87B001DA87300203EBD09E3CA0207
:1039C000C80000200EB54FF4976310B106A107C9D7
:1039D00001E008A207CA8DE807006A4609211846D7
:1039E00002F094F90EBD0000B8AAB38DB4980D355D
:1039F0005D000000B8AAAAAAB088C3C5C70000002D
:103A000008B560B1C0208DF80000C2208DF801001B
:103A1000C4208DF80200C6208DF8030004E08B223C
:103A200004216846FCF7BAFC6A46042140F6982057
:103A300002F06CF901F02AFE08BD0000C8234FF423
:103A40008062024940F6F63001F002BDD8710008EC
:103A50002DE9FF4F89B01746DDE916520024544E78
:103A6000884681462C80A246B07B694601F09CFDC9
:103A70004FF0FF3B18B158460DB0BDE8F08F70898C
:103A800010F0140F4CD0BDF800109DF8022049BA78
:103A9000090441EA02239DF803100B433B60BDF883
:103AA00004109DF8062049BA090441EA02229DF853
:103AB00007101B140A437A60BDF808109DF80A40ED
:103AC00049BA090441EA04219DF80B40121421432C
:103AD000B960BDF80C409DF80EC064BA240444EAF5
:103AE0000C2C9DF80F4009144CEA040CC7F80CC0CC
:103AF0004FEA2C475B43494302FB023207FB0711A5
:103B000011441024A1F17061B1F1007F04D901F0DA
:103B1000BDFDA5F800A0AEE7298841F48071298099
:103B20004206694611D50A19A41D13885BBAA8F884
:103B3000003053885BBAA8F80230928852BAA8F8CD
:103B400004202A8842F008022A8010F4C07F11D095
:103B50000A19A41D13885BBAA9F8003053885BBA10
:103B6000A9F80230928852BAA9F804202A8842F0B3
:103B700070022A80800716D00C44E07800F0C0055F
:103B800000F03F016078C00706D0C80801F00701C7
:103B90003268491C02B190476078000703D571680C
:103BA00009B1A80988470C9800F056FF002063E788
:103BB000C800002030B5044613A285B007CA8DE8BE
:103BC00007004FF0FF35C82C16D8C820B0FBF4F121
:103BD000491E080A8DF80C008DF80D1003AA022169
:103BE00040F2162002F092F830B96A460C2140F6F5
:103BF000C12002F08BF810B1284605B030BD054851
:103C000084810020F9E70000FEF2ABC4AAF1DFDFF7
:103C1000BBAFDFDFC80000202DE9FF4104463CA018
:103C200004F00303006802903AA0006803903AA0F1
:103C300006683AA0056802A8C15C8DF80010C4F3BC
:103C4000C101425C8DF80120C4F38112805C8DF8C3
:103C5000020003A8C35C8DF80430415C8DF80510A8
:103C6000805C8DF806006A46032140F2264002F08F
:103C70004DF84FF0FF37E0BB01AA032140F22A4084
:103C800002F044F8A8BBCDE9006560070BD59DF8AC
:103C9000000040F001008DF800009DF8040040F0A5
:103CA00001008DF80400A0060BD59DF8010040F03E
:103CB00001008DF801009DF8050040F001008DF82D
:103CC0000500E0050BD59DF8020040F001008DF8DD
:103CD00002009DF8060040F001008DF806006A46DB
:103CE00003214FF4886002F011F810B901AA0321F2
:103CF00000E004E040F2314002F008F818B1384624
:103D000004B0BDE8F081064804810020F8E7000017
:103D10004CCD6C000CC92C00365676002646660049
:103D2000C80000204FF47A7290FBF2F008B54843C7
:103D3000010E8DF80010010C8DF80110010A8DF8AC
:103D400002108DF803006A4604214FF4AE7001F0B2
:103D5000DDFF08BD0521B0FBF1F008B5010A8DF8C3
:103D600000108DF801006A4602214FF4AD7001F099
:103D7000CDFF08BD0521B0FBF1F008B5010A8DF8B3
:103D800000108DF801006A4602214FF4AC7001F07A
:103D9000BDFF08BD08B500218DF80010C10702D095
:103DA00030218DF80010810705D59DF8001041F0F5
:103DB0000C018DF80010400705D59DF8000040F07B
:103DC00003008DF800006A4601214FF4A47001F051
:103DD0009DFF08BD08B560B1042800D90420401E2D
:103DE0008DF800006A46012140F24F1001F08EFF6D
:103DF00008BD0120F3E700002DE9FC41054640071E
:103E00004FF0FF367CD0B1F5C86F79D8084602F084
:103E1000BDFF3E4902F0A4FE074601A801F0E2F909
:103E20009DF80400022806D004280DD008282ED0C2
:103E3000102865D134E00E21384603F066F902F00F
:103E40006DFF84B2324907E00D21384603F05DF979
:103E500002F064FF2F4984B2384602F0ABFF02F053
:103E60005DFF210A8DF8001080B28DF80140010A33
:103E70008DF802108DF80300E8076C4620D022462A
:103E800002214FF4EA7001F041FFC8BB11E00C21A0
:103E9000384603F03AF902F041FF84B21E49DBE7ED
:103EA0000B21384603F031F902F038FF84B21B4988
:103EB000D2E7A21C02214FF4927001F027FFF8B95B
:103EC000A8070DD56A4602214FF4EC7001F01EFFE1
:103ED000B0B9A21C02214FF4947001F017FF78B919
:103EE000680710D56A4602214FF4EE7001F00EFF0C
:103EF00030B9A21C02214FF4967001F007FF10B1F7
:103F00003046BDE8FC810020FBE70000000048438C
:103F1000000040460000C045000040450000C0448D
:103F20000521B0FBF1F008B5010A8DF800108DF8FD
:103F300001006A4602214FF4EF7001F0E7FE08BD70
:103F40000521B0FBF1F008B5010A8DF800108DF8DD
:103F500001006A4602214FF4ED7001F0D7FE08BD62
:103F600010B53C210448FDF71BFBBDE810403C2187
:103F70000248FDF715BB000038070020C8070020E5
:103F800070B514460D4601F093FFBDB194B915E02C
:103F90000A20FCF701FC29460948FCF7C1F948B1A1
:103FA0000849002008704FF480710548FCF7FEF9BD
:103FB000012070BD641E2404240CE9D1002070BDD2
:103FC000990500209800002070B532222AA12BA06C
:103FD000FFF7D6FF14222CA12DA0FFF7D1FF2E4C06
:103FE000012211462046FCF7DEFC4FF4FA75284604
:103FF000FCF7D2FB002201212046FCF7D4FC6E0026
:104000003046FCF7C9FB3046FCF7C6FB01221146DF
:104010002046FCF7C8FC2846FCF7BEFB0022012125
:104020002046FCF7C0FC3046FCF7B6FB3046FCF7F8
:10403000B3FB012211462046FCF7B5FC2846FCF7ED
:10404000ABFB002201212046FCF7ADFCC8220AA1EF
:1040500012A0FFF795FF142207A118A0FFF790FF09
:10406000C82205A118A0FFF78BFFBDE870403222DF
:1040700001A11AA0FFF784BF4F4B000041542B430E
:10408000574D4F44453D3200726561647900000030
:1040900041542B5253540000000C014041542B4317
:1040A000575341503D224F4F5053222C223132332F
:1040B0003435363738222C312C34000041542B4310
:1040C00049504D55583D310041542B4349505345BB
:1040D000525645523D312C383038300041542B4334
:1040E000495053454E4400002DE9FE4306462648FC
:1040F00001AB042240680D210078FEF77FF810B173
:104100000720BDE8FE839DF804101C2000EAD102C0
:104110009DF80710DFF87490C1F301131A438DF86E
:1041200000209DF80520C1F3810300EAD2021A4362
:104130008DF801209DF8062001F0030100EAD2006D
:1041400008430024124F8DF80200A0466D46285DFA
:1041500010B146F824900AE046F824800DE000BF34
:1041600056F82400394602F025FE46F82400285D62
:10417000401E10F0FF002855F2D1641CE4B2032C5D
:10418000E5D30020BDE70000000000207B14AE3E18
:104190001D5A843F2DE9FE4F05460120C14E8DF882
:1041A00000004FF000088DF8018030680C4617467B
:1041B000817C70686B4602220078FEF755F84FF05C
:1041C000FF3A00287AD1C820FCF7E6FA8DF8008083
:1041D00030686B460122C17B70680078FEF744F8B6
:1041E0000028EFD130686B46012241797068007871
:1041F000FEF73AF80028E5D130686B460122817C51
:1042000070680078FEF730F80028DBD130686B4624
:104210000122C17D70680078FEF726F80028D1D110
:1042200030686B460122017970680078FEF71CF84F
:104230000028C7D14FF00C098DF8009030686B460C
:104240000122017970680078FEF70EF8002835D158
:104250000F20FCF7A1FAB06A6B460122407A8DF874
:1042600000003068817870680078FDF7FDFF002855
:1042700024D1B06A6B460122007A8DF800003068C4
:10428000417870680078FDF7EFFF002873D1B06ABD
:10429000807A0FB140F0E0008DF8000030686B4686
:1042A0000122817970680078FDF7DEFF002862D175
:1042B0002FB1B06AC07A40F0E00001E04AE0182077
:1042C0008DF8000030686B460122C1797068007873
:1042D000FDF7CAFFF0BB17B1C820FCF75DFA40201C
:1042E0008DF8000030686B46012201797068007813
:1042F000FDF7BAFF70BB78208DF8000030686B4680
:104300000122417970680078FDF7AEFF10BB3220C2
:10431000FCF742FA8DF80080306847466B464179D9
:10432000706801220078FDF79FFF98B931687068C6
:10433000B046897A00786B460222FDF75FFF48B9E4
:10434000BDF80000AF6040BAB0FBF9F06F60C6B2D4
:104350002F6000E00FE0A76067602760002739E06A
:10436000D8F80010D8F804006B46C97A00780C22FF
:10437000FDF744FF10B15046BDE8FE8FBDF80000C8
:10438000236840BA00B2BDF80210BDF804201844FA
:10439000206049BA606809B20844606052BAA068F7
:1043A00012B21044A060BDF806002B6840BA01B2FA
:1043B000BDF80800BDF80A201944296040BA6968B0
:1043C00000B20844686052BAA86812B210447F1C58
:1043D000FFB2A860B742C3D328688322C11709047B
:1043E00041EA104100040023FBF7F2FE32460023AD
:1043F000FBF7EEFE286068688322C117090441EAD2
:10440000104100040023FBF7E3FE32460023FBF7D4
:10441000DFFE6860A8688322C117090441EA1041E1
:1044200000040023FBF7D4FE32460023FBF7D0FE46
:10443000A86020684FF40065C117090441EA1041E3
:1044400000042A460023FBF7C3FE32460023FBF795
:10445000BFFE206060682A46C117090441EA104186
:1044600000040023FBF7B4FE32460023FBF7B0FE46
:104470006060A0682A46C117090441EA104100049F
:104480000023FBF7A5FE32460023FBF7A1FEA06048
:10449000002802DDA0F5803001E000F58030A0604A
:1044A000002069E7000000202DE9F84F81462E48E2
:1044B0008846002540686B46032200780D21FDF7F1
:1044C0009DFE10B10720BDE8F88F9DF80000002484
:1044D00000F01F008DF800009DF801006FF00F0B39
:1044E00000F01F008DF801009DF802006E4600F0FC
:1044F0001F008DF802004FF0010A00BF59F8241088
:1045000058F82400081A00D5404202F027FC59460A
:1045100002F0FBFD0746305DC0B1144802E01449CB
:1045200002F048FC315D491E11F0FF013155F6D112
:104530000146384602F014FB4FF07E5102F010FDA8
:104540000C4920F00040884205DC07E00A48384466
:10455000B0F1D97F02D90AFA04F00543641C032C98
:10456000CCDB2846AFE70000000000200000C84177
:1045700054E3853F295C0F3E0000E0BE00B50246D3
:1045800000F00DF80346D01C00F009F843EAC00320
:10459000901D00F004F843EA801080B200BD90F94D
:1045A0000010002902DD4FF00000704702DA4FF0E2
:1045B0000400704790F90110002902DD4FF001005E
:1045C000704702DA4FF00500704790F902000028AA
:1045D00002DD4FF00200704702DA4FF0060070472C
:1045E0004FF00700704710B541F2707304685A42EB
:1045F0009C4201DD036002E0944200DA02600C6834
:104600009C4201DD0B6010BD9442FCDA026010BDDB
:1046100008B5FCF7D7FAFEF7C7F9FDF74FFEFDF72F
:10462000C9FFFDF7B3FEFDF70BFFFDF771FFFDF7C7
:104630008DFEFDF739FFFDF7A1FFFEF705F800F04D
:1046400075FE00F081FDFDF7D3FF0122C649C74882
:10465000FDF78CFBFFF7B8FC01F01CFCFFF780FCBA
:10466000C14A1432111D101F00F0A0FC0028F7D120
:1046700001200823BEA201460090FEF72DF9FEF7A7
:1046800085F80021084600F029FCBA48FCF756FEE0
:10469000B54CB94FDFF8E48200256FF03109241FD3
:1046A0004FF4807AA078322800D33D6060780028EB
:1046B000F8D06570B2A1B548FBF732FE60B1B348DF
:1046C000257051460F30FBF771FEB0480F210F30B7
:1046D000FBF76CFE062046E0ADA1AC48FBF720FEE0
:1046E00060B1AA48257051460F30FBF75FFEA7481E
:1046F0000F210F30FBF75AFE0C2034E0A7A1A3488E
:10470000FBF70EFE60B1A148257051460F30FBF754
:104710004DFE9E480F210F30FBF748FE122022E08D
:10472000A1A19A48FBF7FCFD60B19848257051465D
:104730000F30FBF73BFE95480F210F30FBF736FE9D
:10474000182010E09BA19148FBF7EAFD68B18F4863
:10475000257051460F30FBF729FE8C480F210F3092
:10476000FBF724FE1E2020619CE795A18748FBF7FC
:10477000D7FD60B18548257051460F30FBF716FE16
:1047800082480F210F30FBF711FE206911E090A144
:104790007E48FBF7C5FD78B17C48257051460F3047
:1047A000FBF704FE79480F210F30FBF7FFFD20696E
:1047B00040423860A57075E789A17448FBF7B0FDE9
:1047C000F0B17248257051460F30FBF7EFFD6F488E
:1047D0000F210F30FBF7EAFDD8F800001430C8F8BD
:1047E0000000322802DB3221C8F80010A570FCF767
:1047F000DFF80646FCF7DCF8801BC828FAD922E06F
:104800007AA16248FBF78CFD00B3604825705146E1
:104810000F30FBF7CBFD5D480F210F30FBF7C6FDD6
:10482000D8F800101439C8F80010494501DCC8F860
:104830000090A570FCF7BCF84FEA0006FCF7B8F84A
:10484000801BC828FAD9C8F800502BE76AA14F4846
:10485000FBF766FD68B14D48257051460F30FBF7F8
:10486000A5FD4A480F210F30FBF7A0FD00F0F6F838
:1048700018E764A14548FBF753FD68B1434825702C
:1048800051460F30FBF792FD40480F210F30FBF7E8
:104890008DFD00F025F905E75DA13C48FBF740FDE3
:1048A000B8B13A48257051460F30FBF77FFD3748C5
:1048B0000F210F30FBF77AFDBFF34F8F5748016888
:1048C000574A01F4E06111430160BFF34F8F00BF0D
:1048D000FDE754A12D48FBF723FDA8B12B48257017
:1048E00051460F30FBF762FD28480F210F30FBF7D0
:1048F0005DFD32221EA14DA0FFF742FB32221CA11A
:104900004EA0FFF73DFBCDE64DA12048FBF708FD8B
:1049100068B11E48257051460F30FBF747FD1B4814
:104920000F210F30FBF742FD00F034F9BAE647A142
:104930001648FBF7F5FC002814482570514600F195
:104940000F0009D0FBF732FD10480F210F30FBF7A5
:104950002DFD00F031FAA5E6FBF728FD0B480F21ED
:104960000F30FBF723FD9DE69C000020100800207F
:104970004F4B00008007002044000020480000202A
:104980003C737065656420313E0000008A0500209C
:104990003C737065656420323E0000003C737065B6
:1049A000656420333E0000003C737065656420340C
:1049B0003E0000003C737065656420353E000000D9
:1049C0003C706F736974696F6E202B313E0000007C
:1049D0003C706F736974696F6E202D313E0000006A
:1049E0003C7475726E202B313E0000003C74757271
:1049F0006E202D313E0000003C6D6F646520313E1D
:104A0000000000003C6D6F646520323E0000000035
:104A10003C726573746172743E0000000CED00E03E
:104A20000400FA053C73746174653E0041542B43E5
:104A3000495053454E443D302C33000059657300B6
:104A40003C6D6F646520333E000000003C6D6F6478
:104A50006520343E00000000704700002DE9F84357
:104A6000194D14202860FBF7A3FF0446FBF7A0FFB5
:104A70004FF4FA7602E000BFFBF79AFF001BB0424A
:104A8000FAD9282041F268070126104CC7F1000826
:104A9000C5F8000001F064F9E2680DA10F48FBF7CA
:104AA000BBFB08230D4A1E2101200096FDF714FFD1
:104AB000FDF76CFEE068B84202DAE1684145E9DCE6
:104AC00000202860BDE8F883440000209800002002
:104AD0007269676874323A25640000005805002046
:104AE0002DE9F041254C14202060FBF761FF0646BC
:104AF000FBF75EFF4FF4FA7502E000BFFBF758FFCB
:104B0000801BA842FAD928202060FBF751FF0646F7
:104B1000FBF74EFF801BA842FAD93C202060FBF730
:104B200047FF0546FBF744FF4FF47A7602E000BFEB
:104B3000FBF73EFF401BB042FAD94B202060104FDC
:104B40001C20104E0025386070780028FCD075704D
:104B50000DA10F48FBF7E4FB0028F5D00C48357099
:104B60004FF480710F30FBF721FC09480F210F3003
:104B7000FBF71CFC25603D60BDE8F081440000208F
:104B800048000020980000203C657869743E0000D1
:104B90008A0500202DE9F84F012008237FA21E215D
:104BA0000090FDF799FEFDF7F1FD7E4DDFF8F881ED
:104BB0004FF0140B4FF0000940F6B8340026C5F84A
:104BC00000B0FBF7F5FE8246FBF7F2FE07461DE05C
:104BD000FBF7EEFE98F801100746B9B188F801908E
:104BE00072A17448FBF79CFB80B172484E4688F86E
:104BF00000904FF480710F30FBF7D8FB6D480F2108
:104C00000F30FBF7D3FB2E60012603E0A7EB0A0071
:104C1000A042DDD9C5F80090FBF7CAFE8246FBF73B
:104C2000C7FE07461EE000BFFBF7C2FE98F8011062
:104C30000746B9B188F801905CA15E48FBF770FBAC
:104C400080B15C484C4688F800904FF480710F307A
:104C5000FBF7ACFB57480F210F30FBF7A7FB2C608D
:104C6000BDE8F88FA7EB0A00A042DDD9002EF7D1EE
:104C700019202860FBF79CFE8246FBF799FE074649
:104C80001EE000BFFBF794FE98F801100746B9B18B
:104C900088F8019045A14748FBF742FB80B14548A1
:104CA0004E4688F800904FF480710F30FBF77EFB82
:104CB00040480F210F30FBF779FB2E60012603E0FF
:104CC000A7EB0A00A042DDD9C5F80090FBF770FE03
:104CD0008246FBF76DFE07460EE000BFFBF768FE5D
:104CE00098F80110074639B188F801902FA1314892
:104CF000FBF716FB0028A4D1A7EB0A00A042EDD9D0
:104D0000002EADD11E202860FBF752FE8246FBF735
:104D10004FFE07461EE000BFFBF74AFE98F8011061
:104D20000746B9B188F8019020A12248FBF7F8FAAC
:104D300080B120484E4688F800904FF480710F30C3
:104D4000FBF734FB1B480F210F30FBF72FFB2E60C6
:104D5000012603E0A7EB0A00A042DDD9C5F80090C8
:104D6000FBF726FE8246FBF723FE07460EE000BF58
:104D7000FBF71EFE98F80110074639B188F801903C
:104D80000AA10C48FBF7CCFA0028B4D1A7EB0A0023
:104D9000A042EDD9002E3FF411AF61E74D4F4445DD
:104DA0003300000044000020980000203C65786932
:104DB000743E00008A0500202DE9F84F01200823E9
:104DC0003EA21E210090FDF787FDFDF7DFFC3D4967
:104DD0001E203D4DDFF8F4804FF0140B002440F608
:104DE000B83608604FF0000AC5F800B0FBF7E0FDE8
:104DF0008146FBF7DDFD07461EE000BFFBF7D8FD4F
:104E000098F801100746B9B188F8014030A132483E
:104E1000FBF786FA80B100BF2F4888F800404FF4B6
:104E200080710F30FBF7C2FA2B480F210F30FBF7D0
:104E3000BDFA2C60BDE8F88FA7EB0900B042DDD9C0
:104E400019202860FBF7B4FD8146FBF7B1FD07464A
:104E50000EE000BFFBF7ACFD98F80110074639B132
:104E600088F801401AA11C48FBF75AFA0028D3D150
:104E7000A7EB0900B042EDD9BAF1000FDAD11E203C
:104E80002860FBF795FD8146FBF792FD07460DE094
:104E9000FBF78EFD98F80110074639B188F80140FC
:104EA0000BA10D48FBF73CFA0028B5D1A7EB090090
:104EB000B042EDD9BAF1000F94D0BBE74D4F444555
:104EC000340000004800002044000020980000202A
:104ED0003C657869743E00008A0500202DE9F041A8
:104EE0000C001B4E05464FF400514FF4805705D57A
:104EF00001223046FBF757FD002204E00022304635
:104F0000FBF751FD012239463046FBF74CFD002CE2
:104F100000DA64420F4F386804644FF480414C005B
:104F2000002D05DA01223046FBF73DFD002204E0AA
:104F300000223046FBF737FD012221463046FBF7C1
:104F400032FD002D00DA6D4238684563BDE8F0811E
:104F5000000C0140F00600202DE9F041124C20F039
:104F60000101002594F8240010B10020BDE8F08173
:104F7000A07A4FF0FF3668B10840277C2074884241
:104F800000D0354641B1012000F032FF00F07EFB39
:104F900038B127743046E9E7207D00B1012000F0E8
:104FA00027FF2846E2E70000000000202DE9F74F28
:104FB0008EB00CA902A8CDE900010BAB03AA09A988
:104FC00007A8FEF745FD18B1012011B0BDE8F08F2C
:104FD000BDF80800C0057DD5039801F0BFFE6FF055
:104FE0001D04214602F091F88246049801F0B6FEB5
:104FF000214602F08AF88146059801F0AFFE21466D
:1050000002F083F88046069801F0A8FE214602F0DF
:105010007CF805460121504602F077F806464146E5
:1050200001F0C8FE04464FF04041484601F0C2FE80
:105030000746294601F0BEFE214601F029FD01F098
:10504000FBFCFEF74DF84FF0663B5A463D4B01F036
:1050500019FA00F095FF0E9908600121404602F010
:1050600054F84146009001F0A5FE044638464946F2
:1050700001F0A0FE214601F073FF4FF07E5101F0D8
:1050800007FD01F0D9FC07460C463046494601F0C1
:1050900091FE06462946009801F08CFE314601F04B
:1050A000F7FC01F0C9FC3A462346FEF761FA5A467E
:1050B000244B01F0E7F900F063FF0F9908602946DF
:1050C000084601F077FE07464146084601F072FEA9
:1050D000064600E034E04946084601F06BFE04460F
:1050E0005146084601F066FE214601F0D1FC3146EA
:1050F00001F036FF394601F033FF01F09DFC064612
:105100000C462946504601F055FE054641464846A4
:1051100001F050FE294601F0BBFC012101F0F5FF32
:1051200001F08AFC32462346FEF722FA5A46054B26
:1051300001F0A8F900F024FF10990860002044E76E
:10514000022042E766A64C4010B5FCF72FFF00F0A6
:10515000EDF808B10A2010BD782000F07BFD10F0BA
:10516000FF0F01D0012010BD7820FFF7F5FE10F0F1
:10517000FF0F01D0022010BD642000F02BFD10F0C5
:10518000FF0F01D0032010BDFEF758FC10F0FF0FF9
:1051900001D0042010BD1248FFF7F0F9FEF73CFDE6
:1051A00010F0FF0F01D0052010BD40F27310FEF784
:1051B0001DFB10F0FF0F01D0062010BD6420FEF78C
:1051C000F9FC10F0FF0F01D0072010BD00F0E0FD4A
:1051D000012000F025FC10F0FF00F6D0092010BDE2
:1051E0002C0000200D494A7A42B1012A08D0022A37
:1051F0000FD0032A0FD04FF0FF307047022200E09B
:1052000004220270C97C11B11106C90D0170002081
:1052100070470822F5E71022F3E7000000000020A5
:105220000F494A7A42B1012A09D0022A11D0032A31
:1052300012D04FF0FF3070474FF4804201E041F64A
:105240009C720280C97C11B1C2F34E010180002022
:1052500070474FF48052F4E74FF40062F1E700002A
:10526000000000200B49097A39B1012907D0022931
:105270000AD003290BD0002103E0FA2101E04FF40A
:10528000FA710180002070474FF47A71F9E74FF40A
:10529000FA61F6E7000000200A49097A41B10129C4
:1052A00008D002290AD003290AD04FF0FF307047F6
:1052B000054900E005490160002070470449FAE70C
:1052C0000449F8E700000020000003430000834287
:1052D00033330342333383410C49C97A072913D24C
:1052E000DFE801F01204060A0C0E1000BC2100E0F9
:1052F00062210180002070472A21FAE71421F8E793
:105300000A21F6E70521F4E70021F2E7000000207A
:10531000054991F8242012B14FF0FF307047C98938
:105320000180002070470000000000202DE9FC41B2
:10533000464C80208DF8000020686B460122817C5D
:1053400060680078FCF790FF4FF0FF37002875D1B8
:105350006420FBF721FA00258DF8005020686B4689
:105360000122817C60680078FCF77EFF002865D10F
:1053700020686B460622817D60680078FCF73EFF5E
:1053800000285BD19DF805009DF80310C007400F71
:1053900001F0010140EA41009DF801104FF00106C3
:1053A00001F00101084304D0012831D0022810D0B7
:1053B00044E020686B460122C17860680078FCF701
:1053C0001DFFD8BB9DF8000010F00F0036D0042858
:1053D0001ED0E574FF2004F80A0F4FF6FF7104F8A1
:1053E000020C04F8010C6070A180A0712072A670FC
:1053F00026766576E572A572E56025616561A5761C
:10540000E576A5834FF4FA6000F046FBB0B901E001
:10541000E674DFE7022000F061FA78B92A2000F094
:10542000A3FB58B9322000F0D5FB38B90020FFF7B4
:1054300093FD18B9002000F085FA10B13846BDE898
:10544000FC81002000F006FC0020F8E700000020AE
:105450002DE9FF4FDFF89480064685B098F82500C7
:1054600015460F464FF0FF39B0BBAFB3002420E024
:10547000301B102800DD102080B283463A19014607
:105480009246204600F042FC30BB6A465946204610
:1054900000F0D2F800BB50465A466946FAF752FF70
:1054A00020B16FF0010009B0BDE8F08F04EB0B00F4
:1054B00084B2B442DCD3280A8DF810008DF8115064
:1054C000D8F80000444604AB817ED8F804000222DC
:1054D0000078FCF7C9FE08B14846E4E7012084F8EB
:1054E00025000898E0840020DDE70000000000208F
:1054F0002DE9F84305464FF0FF39282844D80727FF
:10550000284C00267DB1012000F0FCFA20208DF807
:1055100000004FF00108012D17D0052D18D88DF887
:10552000018005201FE0002000F0ECFA8DF80060FB
:105530008DF8017020686B460222817C60680078DB
:10554000FCF792FE00BB267529E08DF80160E8E7C4
:10555000142D04D802208DF801000A2003E0032056
:105560008DF80100142000F0FFFA9DF801006B4651
:1055700007EB80108DF8010020680222817C6068B2
:105580000078FCF771FE10B14846BDE8F8830820AA
:10559000A072267384F814800020FFF7DDFC002041
:1055A000F3E70000000000202DE9F843214C0646F7
:1055B000174694F8240089464FF0FF3890B3A07A3C
:1055C00080B320686B460222817A60680078FCF71D
:1055D00015FE38BBBDF8000045BAB54202D2002026
:1055E00038701FE060684188B5EB510F11D9216810
:1055F00000786B46497C0122FCF700FE90B99DF8CB
:105600000000C00605D500F041F86FF00100BDE8CC
:10561000F8832068F2B24B46C17A60680078FCF7E4
:10562000EDFD08B14046F2E7B5FBF6F0401E3870DC
:105630000020ECE700000020F8B516000D464FF002
:10564000FF371FD0104CA17AE1B1010A8DF800108C
:10565000C0B28DF80100411960684289914211D8A9
:10566000216800786B46097E0222FCF7FDFD48B9EF
:105670002068EAB23346417D60680078FCF7BEFDE1
:10568000002800D03846F8BD00000020F8B5564C80
:105690004FF0FF36A07A00287DD000258DF800500D
:1056A00020686B460122C17B60680078FCF7DCFD56
:1056B000002870D120686B4601224179606800782B
:1056C000FCF7D2FD002866D120686B4601220179E3
:1056D00060680078FCF7C8FD00285CD194F82400CD
:1056E000E0B30C208DF8000020686B4601220179A0
:1056F00060680078FCF7B8FD002872D13220FBF713
:105700004BF8C0208DF80000A07AC00702D0E0203E
:105710008DF8000020686B460122017960680078EE
:10572000FCF7A2FD00285CD1607C18B102208DF846
:10573000000001E08DF8005020686B460122C17B1B
:1057400060680078FCF790FD28BB8DF80050206859
:105750006B4601224179606800783EE0FFE7042053
:105760008DF8000020686B4601220179606800789E
:10577000FCF77AFD78B9A07C90B9A07AC0070FD069
:105780005FF060008DF8000020686B46012201790F
:105790006068007800E024E0FCF766FD08BB01E0EB
:1057A0004020EFE73220FAF7F7FF607C18B10120C4
:1057B0008DF8000001E08DF8005020686B46012252
:1057C000C17B60680078FCF74FFD50B92068064B3C
:1057D00001224179606810330078FCF745FD00280C
:1057E00000D03046F8BD0000000000202DE9F04751
:1057F000394C82468AB094F824000F4620B100202C
:1058000000F00EF9012600E0002607A8FFF72AFDA8
:1058100006A8FFF7E7FC09A8FFF75EFD08A8FFF759
:1058200077FD94F80A9094F81080002500223946FC
:105830005046FEF7AFFC10B16D1C022DF6DB022DB9
:105840001AD00025012203A96846FEF7A3FC10B177
:105850006D1C022DF6DB022D0ED003A93846FDF794
:10586000FFFBC7B269465046FEF71EFE10F0FF0F61
:105870004FF0000502D002E0002503E001250FB93A
:1058800045F00205FF2020726072E0724FF6FF7152
:10589000E181A072207401202073BDF81C0000F08B
:1058A000FBF89DF8180000F019F8BDF8240000F08E
:1058B0005BF9BDF8200000F08DF9484600F0CAF908
:1058C0004046FFF749FB16B1012000F0A9F80AB0E5
:1058D0002846BDE8F08700000000002038B5184CCD
:1058E0004FF0FF35A17A19B3022806D0042806D05C
:1058F00008280ED010281BD10DE0002000E0082061
:105900008DF80000607A9DF80010B0EBD10F04D044
:1059100005E01020F4E71820F2E7002038BD2068E9
:105920006B460122C17960680078FCF79DFC08B1E4
:10593000284638BD9DF80000C0086072EDE7000001
:1059400000000020F8B5354C0546A07CA84201D1E6
:105950000020F8BD31484FF0FF366B46D0E900100B
:105960004FF001020979007835B3FCF747FC70BBB2
:105970009DF800006B4620F020008DF800002068A4
:105980000122017960680078FCF76EFCF8B9032009
:10599000FAF702FF02208DF8000094F8220078B395
:1059A00082202BE020686B460122017D6068007830
:1059B000FCF75AFC58B92EE0FCF720FC38B9A07A65
:1059C000C0079DF8000003D040F0200002E00CE08A
:1059D00020F020008DF8000020686B46012201793C
:1059E00060680078FCF740FC08B13046F8BD032041
:1059F000FAF7D2FE94F8220000B180208DF8000062
:105A000094F823000028CDD09DF8000040F030002D
:105A10008DF80000C6E7A5749AE70000000000209A
:105A200038B51C4C94F8241081421DD0002500B3D9
:105A300094F82500D0B1002000F0DAF90020FFF73B
:105A400081FFE08C00F0C6F88DF8005060686B466E
:105A5000012200782321FCF707FC012084F82400B0
:105A600000F0C6F9FFF712FE002038BD4FF0FF30FE
:105A700038BD002000F0BCF9207C8DF80000606883
:105A80006B46012200782321FCF7EEFB84F82450BA
:105A9000E8E700000000002038B5194C4FF0FF3552
:105AA000A17A31B3FA2809D0B0F5FA7F08D0B0F561
:105AB0007A7F0FD0B0F5FA6F1BD10DE0002000E027
:105AC00008208DF80000207A9DF80010B0EBD10F6F
:105AD00004D005E01020F4E71820F2E7002038BDDC
